{
  "_format": "hh-sol-artifact-1",
  "contractName": "GeceyeBirak",
  "sourceName": "contracts/GeceyeBirak.sol",
  "abi": [
    {
      "inputs": [],
      "stateMutability": "payable",
      "type": "constructor"
    },
    {
      "anonymous": false,
      "inputs": [
        {
          "indexed": true,
          "internalType": "address",
          "name": "from",
          "type": "address"
        },
        {
          "indexed": false,
          "internalType": "uint256",
          "name": "timestamp",
          "type": "uint256"
        },
        {
          "indexed": false,
          "internalType": "string",
          "name": "message",
          "type": "string"
        }
      ],
      "name": "NewMesaj",
      "type": "event"
    },
    {
      "inputs": [],
      "name": "getAllMesajs",
      "outputs": [
        {
          "components": [
            {
              "internalType": "address",
              "name": "mesajer",
              "type": "address"
            },
            {
              "internalType": "string",
              "name": "message",
              "type": "string"
            },
            {
              "internalType": "uint256",
              "name": "timestamp",
              "type": "uint256"
            }
          ],
          "internalType": "struct GeceyeBirak.Mesaj[]",
          "name": "",
          "type": "tuple[]"
        }
      ],
      "stateMutability": "view",
      "type": "function"
    },
    {
      "inputs": [],
      "name": "getTotalMesajs",
      "outputs": [
        {
          "internalType": "uint256",
          "name": "",
          "type": "uint256"
        }
      ],
      "stateMutability": "view",
      "type": "function"
    },
    {
      "inputs": [
        {
          "internalType": "address",
          "name": "",
          "type": "address"
        }
      ],
      "name": "lastMesajedAt",
      "outputs": [
        {
          "internalType": "uint256",
          "name": "",
          "type": "uint256"
        }
      ],
      "stateMutability": "view",
      "type": "function"
    },
    {
      "inputs": [
        {
          "internalType": "string",
          "name": "_message",
          "type": "string"
        }
      ],
      "name": "mesaj",
      "outputs": [],
      "stateMutability": "nonpayable",
      "type": "function"
    }
  ],
  "bytecode": "0x60806040526200004f6040518060400160405280601f81526020017f636f6e747261637420636f6e7374727563746f7220776f726b696e672e2e2e008152506200007760201b6200067f1760201c565b606444426200005f91906200017c565b6200006b9190620001e6565b600181905550620002dc565b62000117816040516024016200008e9190620002b8565b6040516020818303038152906040527f41304fac000000000000000000000000000000000000000000000000000000007bffffffffffffffffffffffffffffffffffffffffffffffffffffffff19166020820180517bffffffffffffffffffffffffffffffffffffffffffffffffffffffff83818316178352505050506200011a60201b60201c565b50565b60008151905060006a636f6e736f6c652e6c6f679050602083016000808483855afa5050505050565b6000819050919050565b7f4e487b7100000000000000000000000000000000000000000000000000000000600052601160045260246000fd5b6000620001898262000143565b9150620001968362000143565b9250828201905080821115620001b157620001b06200014d565b5b92915050565b7f4e487b7100000000000000000000000000000000000000000000000000000000600052601260045260246000fd5b6000620001f38262000143565b9150620002008362000143565b925082620002135762000212620001b7565b5b828206905092915050565b600081519050919050565b600082825260208201905092915050565b60005b838110156200025a5780820151818401526020810190506200023d565b60008484015250505050565b6000601f19601f8301169050919050565b600062000284826200021e565b62000290818562000229565b9350620002a28185602086016200023a565b620002ad8162000266565b840191505092915050565b60006020820190508181036000830152620002d4818462000277565b905092915050565b6114b680620002ec6000396000f3fe608060405234801561001057600080fd5b506004361061004c5760003560e01c806308367cac1461005157806316ddb0881461006d5780638472038b1461008b578063a1954c50146100bb575b600080fd5b61006b60048036038101906100669190610a72565b6100d9565b005b6100756104cb565b6040516100829190610ad4565b60405180910390f35b6100a560048036038101906100a09190610b4d565b610516565b6040516100b29190610ad4565b60405180910390f35b6100c361052e565b6040516100d09190610d29565b60405180910390f35b42600a600360003373ffffffffffffffffffffffffffffffffffffffff1673ffffffffffffffffffffffffffffffffffffffff168152602001908152602001600020546101269190610d7a565b10610166576040517f08c379a000000000000000000000000000000000000000000000000000000000815260040161015d90610e31565b60405180910390fd5b42600360003373ffffffffffffffffffffffffffffffffffffffff1673ffffffffffffffffffffffffffffffffffffffff168152602001908152602001600020819055506000808154809291906101bc90610e51565b91905055506102016040518060400160405280601481526020017f2573206d6573616a20626972616b74693a2025730000000000000000000000008152503383610718565b600260405180606001604052803373ffffffffffffffffffffffffffffffffffffffff16815260200183815260200142815250908060018154018082558091505060019003906000526020600020906003020160009091909190915060008201518160000160006101000a81548173ffffffffffffffffffffffffffffffffffffffff021916908373ffffffffffffffffffffffffffffffffffffffff16021790555060208201518160010190816102b991906110a5565b50604082015181600201555050606460015442446102d79190610d7a565b6102e19190610d7a565b6102eb91906111a6565b6001819055506103326040518060400160405280601681526020017f52616e646f6d20232067656e6572617465643a202564000000000000000000008152506001546107b7565b6005600154116104785761037b6040518060400160405280600781526020017f257320776f6e210000000000000000000000000000000000000000000000000081525033610853565b60006509184e72a0009050478111156103c9576040517f08c379a00000000000000000000000000000000000000000000000000000000081526004016103c090611249565b60405180910390fd5b60003373ffffffffffffffffffffffffffffffffffffffff16826040516103ef9061129a565b60006040518083038185875af1925050503d806000811461042c576040519150601f19603f3d011682016040523d82523d6000602084013e610431565b606091505b5050905080610475576040517f08c379a000000000000000000000000000000000000000000000000000000000815260040161046c90611321565b60405180910390fd5b50505b3373ffffffffffffffffffffffffffffffffffffffff167f4bb837f945c23472ee902d0d96d19c368efd1515022fd862612870d26aa2a3b342836040516104c092919061137a565b60405180910390a250565b600061050e6040518060400160405280601981526020017f546f706c616d2025642074616e65206d6573616a2076617221000000000000008152506000546107b7565b600054905090565b60036020528060005260406000206000915090505481565b60606002805480602002602001604051908101604052809291908181526020016000905b8282101561067657838290600052602060002090600302016040518060600160405290816000820160009054906101000a900473ffffffffffffffffffffffffffffffffffffffff1673ffffffffffffffffffffffffffffffffffffffff1673ffffffffffffffffffffffffffffffffffffffff1681526020016001820180546105db90610ec8565b80601f016020809104026020016040519081016040528092919081815260200182805461060790610ec8565b80156106545780601f1061062957610100808354040283529160200191610654565b820191906000526020600020905b81548152906001019060200180831161063757829003601f168201915b5050505050815260200160028201548152505081526020019060010190610552565b50505050905090565b6107158160405160240161069391906113aa565b6040516020818303038152906040527f41304fac000000000000000000000000000000000000000000000000000000007bffffffffffffffffffffffffffffffffffffffffffffffffffffffff19166020820180517bffffffffffffffffffffffffffffffffffffffffffffffffffffffff83818316178352505050506108ef565b50565b6107b2838383604051602401610730939291906113db565b6040516020818303038152906040527fe0e9ad4f000000000000000000000000000000000000000000000000000000007bffffffffffffffffffffffffffffffffffffffffffffffffffffffff19166020820180517bffffffffffffffffffffffffffffffffffffffffffffffffffffffff83818316178352505050506108ef565b505050565b61084f82826040516024016107cd929190611420565b6040516020818303038152906040527fb60e72cc000000000000000000000000000000000000000000000000000000007bffffffffffffffffffffffffffffffffffffffffffffffffffffffff19166020820180517bffffffffffffffffffffffffffffffffffffffffffffffffffffffff83818316178352505050506108ef565b5050565b6108eb8282604051602401610869929190611450565b6040516020818303038152906040527f319af333000000000000000000000000000000000000000000000000000000007bffffffffffffffffffffffffffffffffffffffffffffffffffffffff19166020820180517bffffffffffffffffffffffffffffffffffffffffffffffffffffffff83818316178352505050506108ef565b5050565b60008151905060006a636f6e736f6c652e6c6f679050602083016000808483855afa5050505050565b6000604051905090565b600080fd5b600080fd5b600080fd5b600080fd5b6000601f19601f8301169050919050565b7f4e487b7100000000000000000000000000000000000000000000000000000000600052604160045260246000fd5b61097f82610936565b810181811067ffffffffffffffff8211171561099e5761099d610947565b5b80604052505050565b60006109b1610918565b90506109bd8282610976565b919050565b600067ffffffffffffffff8211156109dd576109dc610947565b5b6109e682610936565b9050602081019050919050565b82818337600083830152505050565b6000610a15610a10846109c2565b6109a7565b905082815260208101848484011115610a3157610a30610931565b5b610a3c8482856109f3565b509392505050565b600082601f830112610a5957610a5861092c565b5b8135610a69848260208601610a02565b91505092915050565b600060208284031215610a8857610a87610922565b5b600082013567ffffffffffffffff811115610aa657610aa5610927565b5b610ab284828501610a44565b91505092915050565b6000819050919050565b610ace81610abb565b82525050565b6000602082019050610ae96000830184610ac5565b92915050565b600073ffffffffffffffffffffffffffffffffffffffff82169050919050565b6000610b1a82610aef565b9050919050565b610b2a81610b0f565b8114610b3557600080fd5b50565b600081359050610b4781610b21565b92915050565b600060208284031215610b6357610b62610922565b5b6000610b7184828501610b38565b91505092915050565b600081519050919050565b600082825260208201905092915050565b6000819050602082019050919050565b610baf81610b0f565b82525050565b600081519050919050565b600082825260208201905092915050565b60005b83811015610bef578082015181840152602081019050610bd4565b60008484015250505050565b6000610c0682610bb5565b610c108185610bc0565b9350610c20818560208601610bd1565b610c2981610936565b840191505092915050565b610c3d81610abb565b82525050565b6000606083016000830151610c5b6000860182610ba6565b5060208301518482036020860152610c738282610bfb565b9150506040830151610c886040860182610c34565b508091505092915050565b6000610c9f8383610c43565b905092915050565b6000602082019050919050565b6000610cbf82610b7a565b610cc98185610b85565b935083602082028501610cdb85610b96565b8060005b85811015610d175784840389528151610cf88582610c93565b9450610d0383610ca7565b925060208a01995050600181019050610cdf565b50829750879550505050505092915050565b60006020820190508181036000830152610d438184610cb4565b905092915050565b7f4e487b7100000000000000000000000000000000000000000000000000000000600052601160045260246000fd5b6000610d8582610abb565b9150610d9083610abb565b9250828201905080821115610da857610da7610d4b565b5b92915050565b600082825260208201905092915050565b7f506c65617365207761697420323320686f757273206265666f7265207375626d60008201527f697474696e672061206e6577206d657373616765000000000000000000000000602082015250565b6000610e1b603483610dae565b9150610e2682610dbf565b604082019050919050565b60006020820190508181036000830152610e4a81610e0e565b9050919050565b6000610e5c82610abb565b91507fffffffffffffffffffffffffffffffffffffffffffffffffffffffffffffffff8203610e8e57610e8d610d4b565b5b600182019050919050565b7f4e487b7100000000000000000000000000000000000000000000000000000000600052602260045260246000fd5b60006002820490506001821680610ee057607f821691505b602082108103610ef357610ef2610e99565b5b50919050565b60008190508160005260206000209050919050565b60006020601f8301049050919050565b600082821b905092915050565b600060088302610f5b7fffffffffffffffffffffffffffffffffffffffffffffffffffffffffffffffff82610f1e565b610f658683610f1e565b95508019841693508086168417925050509392505050565b6000819050919050565b6000610fa2610f9d610f9884610abb565b610f7d565b610abb565b9050919050565b6000819050919050565b610fbc83610f87565b610fd0610fc882610fa9565b848454610f2b565b825550505050565b600090565b610fe5610fd8565b610ff0818484610fb3565b505050565b5b8181101561101457611009600082610fdd565b600181019050610ff6565b5050565b601f8211156110595761102a81610ef9565b61103384610f0e565b81016020851015611042578190505b61105661104e85610f0e565b830182610ff5565b50505b505050565b600082821c905092915050565b600061107c6000198460080261105e565b1980831691505092915050565b6000611095838361106b565b9150826002028217905092915050565b6110ae82610bb5565b67ffffffffffffffff8111156110c7576110c6610947565b5b6110d18254610ec8565b6110dc828285611018565b600060209050601f83116001811461110f57600084156110fd578287015190505b6111078582611089565b86555061116f565b601f19841661111d86610ef9565b60005b8281101561114557848901518255600182019150602085019450602081019050611120565b86831015611162578489015161115e601f89168261106b565b8355505b6001600288020188555050505b505050505050565b7f4e487b7100000000000000000000000000000000000000000000000000000000600052601260045260246000fd5b60006111b182610abb565b91506111bc83610abb565b9250826111cc576111cb611177565b5b828206905092915050565b7f547279696e6720746f207769746864726177206d6f7265206d6f6e657920746860008201527f616e2074686520636f6e7472616374206861732e000000000000000000000000602082015250565b6000611233603483610dae565b915061123e826111d7565b604082019050919050565b6000602082019050818103600083015261126281611226565b9050919050565b600081905092915050565b50565b6000611284600083611269565b915061128f82611274565b600082019050919050565b60006112a582611277565b9150819050919050565b7f4661696c656420746f207769746864726177206d6f6e65792066726f6d20636f60008201527f6e74726163742e00000000000000000000000000000000000000000000000000602082015250565b600061130b602783610dae565b9150611316826112af565b604082019050919050565b6000602082019050818103600083015261133a816112fe565b9050919050565b600061134c82610bb5565b6113568185610dae565b9350611366818560208601610bd1565b61136f81610936565b840191505092915050565b600060408201905061138f6000830185610ac5565b81810360208301526113a18184611341565b90509392505050565b600060208201905081810360008301526113c48184611341565b905092915050565b6113d581610b0f565b82525050565b600060608201905081810360008301526113f58186611341565b905061140460208301856113cc565b81810360408301526114168184611341565b9050949350505050565b6000604082019050818103600083015261143a8185611341565b90506114496020830184610ac5565b9392505050565b6000604082019050818103600083015261146a8185611341565b905061147960208301846113cc565b939250505056fea26469706673582212204deb60a16de9befb68e92bf5f7bcac1af4e0d1cae099012ec5323bf04ac1aa4e64736f6c63430008110033",
  "linkReferences": {},
  "deployedLinkReferences": {}
}